{
  "transactions": [
    {
      "hash": "0xc295ecc5eff4e508db9a969df0349383d3d04442bce5251661ee06d0296ab960",
      "transactionType": "CALL",
      "contractName": null,
      "contractAddress": "0x49298f4314eb127041b814a2616c25687db6b650",
      "function": "upgradeToAndCall(address,bytes)",
      "arguments": [
        "0xC9Eb65414650927dd9e8839CA7c696437e982547",
        "0x"
      ],
      "transaction": {
        "from": "0x6fa2149e69dbcbdcf6f16f755e08c10e53c40605",
        "to": "0x49298f4314eb127041b814a2616c25687db6b650",
        "gas": "0xcdc1",
        "value": "0x0",
        "input": "0x4f1ef286000000000000000000000000c9eb65414650927dd9e8839ca7c696437e98254700000000000000000000000000000000000000000000000000000000000000400000000000000000000000000000000000000000000000000000000000000000",
        "nonce": "0x55",
        "chainId": "0x138de"
      },
      "additionalContracts": [],
      "isFixedGasLimit": false
    },
    {
      "hash": "0xbbcce6253283c5dfb989e993171f9b2fc42593749d3b40d877a985513106a2f2",
      "transactionType": "CALL",
      "contractName": null,
      "contractAddress": "0x3a0a97dca5e6cacc258490d5ece453412f8e1883",
      "function": "upgradeToAndCall(address,bytes)",
      "arguments": [
        "0xdFCdD986F2a5E412671afC81537BA43D1f6A328b",
        "0x"
      ],
      "transaction": {
        "from": "0x6fa2149e69dbcbdcf6f16f755e08c10e53c40605",
        "to": "0x3a0a97dca5e6cacc258490d5ece453412f8e1883",
        "gas": "0xceb4",
        "value": "0x0",
        "input": "0x4f1ef286000000000000000000000000dfcdd986f2a5e412671afc81537ba43d1f6a328b00000000000000000000000000000000000000000000000000000000000000400000000000000000000000000000000000000000000000000000000000000000",
        "nonce": "0x56",
        "chainId": "0x138de"
      },
      "additionalContracts": [],
      "isFixedGasLimit": false
    },
    {
      "hash": "0x00e9279a4b6a633c8b6a55b6983fb25bfd4954902b90a77b4d8a1aeaacb32efb",
      "transactionType": "CALL",
      "contractName": null,
      "contractAddress": "0x7754272c866892cad4a414c76f060645bdc27203",
      "function": "upgradeToAndCall(address,bytes)",
      "arguments": [
        "0x657613E8265e07e542D42802515677A1199989B2",
        "0x"
      ],
      "transaction": {
        "from": "0x6fa2149e69dbcbdcf6f16f755e08c10e53c40605",
        "to": "0x7754272c866892cad4a414c76f060645bdc27203",
        "gas": "0xceb4",
        "value": "0x0",
        "input": "0x4f1ef286000000000000000000000000657613e8265e07e542d42802515677a1199989b200000000000000000000000000000000000000000000000000000000000000400000000000000000000000000000000000000000000000000000000000000000",
        "nonce": "0x57",
        "chainId": "0x138de"
      },
      "additionalContracts": [],
      "isFixedGasLimit": false
    }
  ],
  "receipts": [
    {
      "status": "0x1",
      "cumulativeGasUsed": "0x776526",
      "logs": [
        {
          "address": "0x49298f4314eb127041b814a2616c25687db6b650",
          "topics": [
            "0xbc7cd75a20ee27fd9adebab32041f755214dbc6bffa90cc0225b39da2e5c2d3b",
            "0x000000000000000000000000c9eb65414650927dd9e8839ca7c696437e982547"
          ],
          "data": "0x",
          "blockHash": "0x6b6814d2b9d263816749fe6a5e4f4acf0ba4f80911933ead085606627cbd2b94",
          "blockNumber": "0xcd4437",
          "blockTimestamp": "0x6923462b",
          "transactionHash": "0xc295ecc5eff4e508db9a969df0349383d3d04442bce5251661ee06d0296ab960",
          "transactionIndex": "0x7",
          "logIndex": "0x19",
          "removed": false
        }
      ],
      "logsBloom": "0x00000000000000000000000000000000400200000000000000000000000000000000000000000000000000000000000000000000000000000000000000000000000000000000000000000000000002000000000000200000000000000000000000000000000000000000000000000000000000000000000000000000000000000000000000000000000000000000000000000000000028000000000000000000000000000100000000000000000000000000010000000000000000000000000000000020000000000000000000000000000000000000000000000000000000000000000000000000000000000000000000000000000000000000000000000000",
      "type": "0x2",
      "transactionHash": "0xc295ecc5eff4e508db9a969df0349383d3d04442bce5251661ee06d0296ab960",
      "transactionIndex": "0x7",
      "blockHash": "0x6b6814d2b9d263816749fe6a5e4f4acf0ba4f80911933ead085606627cbd2b94",
      "blockNumber": "0xcd4437",
      "gasUsed": "0x94f7",
      "effectiveGasPrice": "0x252",
      "from": "0x6fa2149e69dbcbdcf6f16f755e08c10e53c40605",
      "to": "0x49298f4314eb127041b814a2616c25687db6b650",
      "contractAddress": null
    },
    {
      "status": "0x1",
      "cumulativeGasUsed": "0x77facd",
      "logs": [
        {
          "address": "0x3a0a97dca5e6cacc258490d5ece453412f8e1883",
          "topics": [
            "0xbc7cd75a20ee27fd9adebab32041f755214dbc6bffa90cc0225b39da2e5c2d3b",
            "0x000000000000000000000000dfcdd986f2a5e412671afc81537ba43d1f6a328b"
          ],
          "data": "0x",
          "blockHash": "0x6b6814d2b9d263816749fe6a5e4f4acf0ba4f80911933ead085606627cbd2b94",
          "blockNumber": "0xcd4437",
          "blockTimestamp": "0x6923462b",
          "transactionHash": "0xbbcce6253283c5dfb989e993171f9b2fc42593749d3b40d877a985513106a2f2",
          "transactionIndex": "0x8",
          "logIndex": "0x1a",
          "removed": false
        }
      ],
      "logsBloom": "0x00000000000000000000000000000000400000000000000000000000000000000000000000000000000000000000000000000000000000000000000000000000000000000000000000000000000012000000000000000000000000000000000000000000000000000000000100000000000000000000000000008000000000000000000000000000000000000000000000000000000000000000000000000000000000000000020000000000000000000000000000000000000000000000000000000020000000000000000000000000000000000000000000020000000000000000000000000000000000000000000000000000000000000000000000008000",
      "type": "0x2",
      "transactionHash": "0xbbcce6253283c5dfb989e993171f9b2fc42593749d3b40d877a985513106a2f2",
      "transactionIndex": "0x8",
      "blockHash": "0x6b6814d2b9d263816749fe6a5e4f4acf0ba4f80911933ead085606627cbd2b94",
      "blockNumber": "0xcd4437",
      "gasUsed": "0x95a7",
      "effectiveGasPrice": "0x252",
      "from": "0x6fa2149e69dbcbdcf6f16f755e08c10e53c40605",
      "to": "0x3a0a97dca5e6cacc258490d5ece453412f8e1883",
      "contractAddress": null
    },
    {
      "status": "0x1",
      "cumulativeGasUsed": "0x789074",
      "logs": [
        {
          "address": "0x7754272c866892cad4a414c76f060645bdc27203",
          "topics": [
            "0xbc7cd75a20ee27fd9adebab32041f755214dbc6bffa90cc0225b39da2e5c2d3b",
            "0x000000000000000000000000657613e8265e07e542d42802515677a1199989b2"
          ],
          "data": "0x",
          "blockHash": "0x6b6814d2b9d263816749fe6a5e4f4acf0ba4f80911933ead085606627cbd2b94",
          "blockNumber": "0xcd4437",
          "blockTimestamp": "0x6923462b",
          "transactionHash": "0x00e9279a4b6a633c8b6a55b6983fb25bfd4954902b90a77b4d8a1aeaacb32efb",
          "transactionIndex": "0x9",
          "logIndex": "0x1b",
          "removed": false
        }
      ],
      "logsBloom": "0x00000000000000000000000000000000400000000000000000000000000000000000000000000000000000000000000000000000000000000000000000000000000000000000000100000000000002000000000000000000000000000000000000000000000000020000000000000000100000000000000000000000000000000000000000000000000000000004000000000000000000000000000000000000000000000000000000000000000000000080000000000000000000000000000000000020000000000000000000000000000000000000000000000000000000000000000000000000000000000000000000000000000000000000000000000001",
      "type": "0x2",
      "transactionHash": "0x00e9279a4b6a633c8b6a55b6983fb25bfd4954902b90a77b4d8a1aeaacb32efb",
      "transactionIndex": "0x9",
      "blockHash": "0x6b6814d2b9d263816749fe6a5e4f4acf0ba4f80911933ead085606627cbd2b94",
      "blockNumber": "0xcd4437",
      "gasUsed": "0x95a7",
      "effectiveGasPrice": "0x252",
      "from": "0x6fa2149e69dbcbdcf6f16f755e08c10e53c40605",
      "to": "0x7754272c866892cad4a414c76f060645bdc27203",
      "contractAddress": null
    }
  ],
  "libraries": [],
  "pending": [],
  "returns": {},
  "timestamp": 1763919406,
  "chain": 80094,
  "commit": "822b5d6"
}