{
  "transactions": [
    {
      "hash": "0xb3d3c0923e7e81d95e477d62818e83216d4db652c66a255fabb49dfcd586a447",
      "transactionType": "CALL",
      "contractName": null,
      "contractAddress": "0x49298f4314eb127041b814a2616c25687db6b650",
      "function": "upgradeToAndCall(address,bytes)",
      "arguments": [
        "0xC9Eb65414650927dd9e8839CA7c696437e982547",
        "0x"
      ],
      "transaction": {
        "from": "0x6fa2149e69dbcbdcf6f16f755e08c10e53c40605",
        "to": "0x49298f4314eb127041b814a2616c25687db6b650",
        "gas": "0xbb34",
        "value": "0x0",
        "input": "0x4f1ef286000000000000000000000000c9eb65414650927dd9e8839ca7c696437e98254700000000000000000000000000000000000000000000000000000000000000400000000000000000000000000000000000000000000000000000000000000000",
        "nonce": "0x58",
        "chainId": "0x138de"
      },
      "additionalContracts": [],
      "isFixedGasLimit": false
    },
    {
      "hash": "0xcad29ce232165d6eebe5e9d3d358feebf5f928d609345a818473868a2c65fc4e",
      "transactionType": "CALL",
      "contractName": null,
      "contractAddress": "0x3a0a97dca5e6cacc258490d5ece453412f8e1883",
      "function": "upgradeToAndCall(address,bytes)",
      "arguments": [
        "0xdFCdD986F2a5E412671afC81537BA43D1f6A328b",
        "0x"
      ],
      "transaction": {
        "from": "0x6fa2149e69dbcbdcf6f16f755e08c10e53c40605",
        "to": "0x3a0a97dca5e6cacc258490d5ece453412f8e1883",
        "gas": "0xbc35",
        "value": "0x0",
        "input": "0x4f1ef286000000000000000000000000dfcdd986f2a5e412671afc81537ba43d1f6a328b00000000000000000000000000000000000000000000000000000000000000400000000000000000000000000000000000000000000000000000000000000000",
        "nonce": "0x59",
        "chainId": "0x138de"
      },
      "additionalContracts": [],
      "isFixedGasLimit": false
    },
    {
      "hash": "0x4ad627efb886d0a124aa6638dfaa46aa45c28d423ee6880ec809395237cf6303",
      "transactionType": "CALL",
      "contractName": null,
      "contractAddress": "0x7754272c866892cad4a414c76f060645bdc27203",
      "function": "upgradeToAndCall(address,bytes)",
      "arguments": [
        "0x657613E8265e07e542D42802515677A1199989B2",
        "0x"
      ],
      "transaction": {
        "from": "0x6fa2149e69dbcbdcf6f16f755e08c10e53c40605",
        "to": "0x7754272c866892cad4a414c76f060645bdc27203",
        "gas": "0xbc35",
        "value": "0x0",
        "input": "0x4f1ef286000000000000000000000000657613e8265e07e542d42802515677a1199989b200000000000000000000000000000000000000000000000000000000000000400000000000000000000000000000000000000000000000000000000000000000",
        "nonce": "0x5a",
        "chainId": "0x138de"
      },
      "additionalContracts": [],
      "isFixedGasLimit": false
    }
  ],
  "receipts": [
    {
      "status": "0x1",
      "cumulativeGasUsed": "0x107279",
      "logs": [
        {
          "address": "0x49298f4314eb127041b814a2616c25687db6b650",
          "topics": [
            "0xbc7cd75a20ee27fd9adebab32041f755214dbc6bffa90cc0225b39da2e5c2d3b",
            "0x000000000000000000000000c9eb65414650927dd9e8839ca7c696437e982547"
          ],
          "data": "0x",
          "blockHash": "0x7a850691b7a54e078fac3b1940be786eed44f276fda7c8fa6906107ef8f0a871",
          "blockNumber": "0xcd44bf",
          "blockTimestamp": "0x6923473b",
          "transactionHash": "0xb3d3c0923e7e81d95e477d62818e83216d4db652c66a255fabb49dfcd586a447",
          "transactionIndex": "0x4",
          "logIndex": "0x27",
          "removed": false
        }
      ],
      "logsBloom": "0x00000000000000000000000000000000400200000000000000000000000000000000000000000000000000000000000000000000000000000000000000000000000000000000000000000000000002000000000000200000000000000000000000000000000000000000000000000000000000000000000000000000000000000000000000000000000000000000000000000000000028000000000000000000000000000100000000000000000000000000010000000000000000000000000000000020000000000000000000000000000000000000000000000000000000000000000000000000000000000000000000000000000000000000000000000000",
      "type": "0x2",
      "transactionHash": "0xb3d3c0923e7e81d95e477d62818e83216d4db652c66a255fabb49dfcd586a447",
      "transactionIndex": "0x4",
      "blockHash": "0x7a850691b7a54e078fac3b1940be786eed44f276fda7c8fa6906107ef8f0a871",
      "blockNumber": "0xcd44bf",
      "gasUsed": "0x8001",
      "effectiveGasPrice": "0x3a1",
      "from": "0x6fa2149e69dbcbdcf6f16f755e08c10e53c40605",
      "to": "0x49298f4314eb127041b814a2616c25687db6b650",
      "contractAddress": null
    },
    {
      "status": "0x1",
      "cumulativeGasUsed": "0x10f32a",
      "logs": [
        {
          "address": "0x3a0a97dca5e6cacc258490d5ece453412f8e1883",
          "topics": [
            "0xbc7cd75a20ee27fd9adebab32041f755214dbc6bffa90cc0225b39da2e5c2d3b",
            "0x000000000000000000000000dfcdd986f2a5e412671afc81537ba43d1f6a328b"
          ],
          "data": "0x",
          "blockHash": "0x7a850691b7a54e078fac3b1940be786eed44f276fda7c8fa6906107ef8f0a871",
          "blockNumber": "0xcd44bf",
          "blockTimestamp": "0x6923473b",
          "transactionHash": "0xcad29ce232165d6eebe5e9d3d358feebf5f928d609345a818473868a2c65fc4e",
          "transactionIndex": "0x5",
          "logIndex": "0x28",
          "removed": false
        }
      ],
      "logsBloom": "0x00000000000000000000000000000000400000000000000000000000000000000000000000000000000000000000000000000000000000000000000000000000000000000000000000000000000012000000000000000000000000000000000000000000000000000000000100000000000000000000000000008000000000000000000000000000000000000000000000000000000000000000000000000000000000000000020000000000000000000000000000000000000000000000000000000020000000000000000000000000000000000000000000020000000000000000000000000000000000000000000000000000000000000000000000008000",
      "type": "0x2",
      "transactionHash": "0xcad29ce232165d6eebe5e9d3d358feebf5f928d609345a818473868a2c65fc4e",
      "transactionIndex": "0x5",
      "blockHash": "0x7a850691b7a54e078fac3b1940be786eed44f276fda7c8fa6906107ef8f0a871",
      "blockNumber": "0xcd44bf",
      "gasUsed": "0x80b1",
      "effectiveGasPrice": "0x3a1",
      "from": "0x6fa2149e69dbcbdcf6f16f755e08c10e53c40605",
      "to": "0x3a0a97dca5e6cacc258490d5ece453412f8e1883",
      "contractAddress": null
    },
    {
      "status": "0x1",
      "cumulativeGasUsed": "0x1173db",
      "logs": [
        {
          "address": "0x7754272c866892cad4a414c76f060645bdc27203",
          "topics": [
            "0xbc7cd75a20ee27fd9adebab32041f755214dbc6bffa90cc0225b39da2e5c2d3b",
            "0x000000000000000000000000657613e8265e07e542d42802515677a1199989b2"
          ],
          "data": "0x",
          "blockHash": "0x7a850691b7a54e078fac3b1940be786eed44f276fda7c8fa6906107ef8f0a871",
          "blockNumber": "0xcd44bf",
          "blockTimestamp": "0x6923473b",
          "transactionHash": "0x4ad627efb886d0a124aa6638dfaa46aa45c28d423ee6880ec809395237cf6303",
          "transactionIndex": "0x6",
          "logIndex": "0x29",
          "removed": false
        }
      ],
      "logsBloom": "0x00000000000000000000000000000000400000000000000000000000000000000000000000000000000000000000000000000000000000000000000000000000000000000000000100000000000002000000000000000000000000000000000000000000000000020000000000000000100000000000000000000000000000000000000000000000000000000004000000000000000000000000000000000000000000000000000000000000000000000080000000000000000000000000000000000020000000000000000000000000000000000000000000000000000000000000000000000000000000000000000000000000000000000000000000000001",
      "type": "0x2",
      "transactionHash": "0x4ad627efb886d0a124aa6638dfaa46aa45c28d423ee6880ec809395237cf6303",
      "transactionIndex": "0x6",
      "blockHash": "0x7a850691b7a54e078fac3b1940be786eed44f276fda7c8fa6906107ef8f0a871",
      "blockNumber": "0xcd44bf",
      "gasUsed": "0x80b1",
      "effectiveGasPrice": "0x3a1",
      "from": "0x6fa2149e69dbcbdcf6f16f755e08c10e53c40605",
      "to": "0x7754272c866892cad4a414c76f060645bdc27203",
      "contractAddress": null
    }
  ],
  "libraries": [],
  "pending": [],
  "returns": {},
  "timestamp": 1763919677,
  "chain": 80094,
  "commit": "822b5d6"
}