{
  "transactions": [
    {
      "hash": "0x3c21de6ed8ad8cf481b53a617d5df972a928d3528ddd7e2d6fb6bf014255029f",
      "transactionType": "CALL",
      "contractName": null,
      "contractAddress": "0x49298f4314eb127041b814a2616c25687db6b650",
      "function": "upgradeToAndCall(address,bytes)",
      "arguments": [
        "0xC9Eb65414650927dd9e8839CA7c696437e982547",
        "0x"
      ],
      "transaction": {
        "from": "0x6fa2149e69dbcbdcf6f16f755e08c10e53c40605",
        "to": "0x49298f4314eb127041b814a2616c25687db6b650",
        "gas": "0xd9bc",
        "value": "0x0",
        "input": "0x4f1ef286000000000000000000000000c9eb65414650927dd9e8839ca7c696437e98254700000000000000000000000000000000000000000000000000000000000000400000000000000000000000000000000000000000000000000000000000000000",
        "nonce": "0x49",
        "chainId": "0x138de"
      },
      "additionalContracts": [],
      "isFixedGasLimit": false
    },
    {
      "hash": "0x9c632ef6965865d1e51126826bac5e465282984c04d00d44e743ea1ec53764d3",
      "transactionType": "CALL",
      "contractName": null,
      "contractAddress": "0x3a0a97dca5e6cacc258490d5ece453412f8e1883",
      "function": "upgradeToAndCall(address,bytes)",
      "arguments": [
        "0xdFCdD986F2a5E412671afC81537BA43D1f6A328b",
        "0x"
      ],
      "transaction": {
        "from": "0x6fa2149e69dbcbdcf6f16f755e08c10e53c40605",
        "to": "0x3a0a97dca5e6cacc258490d5ece453412f8e1883",
        "gas": "0xbc35",
        "value": "0x0",
        "input": "0x4f1ef286000000000000000000000000dfcdd986f2a5e412671afc81537ba43d1f6a328b00000000000000000000000000000000000000000000000000000000000000400000000000000000000000000000000000000000000000000000000000000000",
        "nonce": "0x4a",
        "chainId": "0x138de"
      },
      "additionalContracts": [],
      "isFixedGasLimit": false
    },
    {
      "hash": "0xa5354a1f554793e8a5af79d0bf53ff32d85cba4b39eca7be9d178f7137cd282c",
      "transactionType": "CALL",
      "contractName": null,
      "contractAddress": "0x7754272c866892cad4a414c76f060645bdc27203",
      "function": "upgradeToAndCall(address,bytes)",
      "arguments": [
        "0x657613E8265e07e542D42802515677A1199989B2",
        "0x"
      ],
      "transaction": {
        "from": "0x6fa2149e69dbcbdcf6f16f755e08c10e53c40605",
        "to": "0x7754272c866892cad4a414c76f060645bdc27203",
        "gas": "0xbc35",
        "value": "0x0",
        "input": "0x4f1ef286000000000000000000000000657613e8265e07e542d42802515677a1199989b200000000000000000000000000000000000000000000000000000000000000400000000000000000000000000000000000000000000000000000000000000000",
        "nonce": "0x4b",
        "chainId": "0x138de"
      },
      "additionalContracts": [],
      "isFixedGasLimit": false
    }
  ],
  "receipts": [
    {
      "status": "0x1",
      "cumulativeGasUsed": "0x86a939",
      "logs": [
        {
          "address": "0x49298f4314eb127041b814a2616c25687db6b650",
          "topics": [
            "0xbc7cd75a20ee27fd9adebab32041f755214dbc6bffa90cc0225b39da2e5c2d3b",
            "0x000000000000000000000000c9eb65414650927dd9e8839ca7c696437e982547"
          ],
          "data": "0x",
          "blockHash": "0x6a9a26063066229670f5a9c06dbaf29803a53831937d1fc57e24dcc6aa021727",
          "blockNumber": "0xcd4193",
          "blockTimestamp": "0x692340e3",
          "transactionHash": "0x3c21de6ed8ad8cf481b53a617d5df972a928d3528ddd7e2d6fb6bf014255029f",
          "transactionIndex": "0x6",
          "logIndex": "0x46",
          "removed": false
        }
      ],
      "logsBloom": "0x00000000000000000000000000000000400200000000000000000000000000000000000000000000000000000000000000000000000000000000000000000000000000000000000000000000000002000000000000200000000000000000000000000000000000000000000000000000000000000000000000000000000000000000000000000000000000000000000000000000000028000000000000000000000000000100000000000000000000000000010000000000000000000000000000000020000000000000000000000000000000000000000000000000000000000000000000000000000000000000000000000000000000000000000000000000",
      "type": "0x2",
      "transactionHash": "0x3c21de6ed8ad8cf481b53a617d5df972a928d3528ddd7e2d6fb6bf014255029f",
      "transactionIndex": "0x6",
      "blockHash": "0x6a9a26063066229670f5a9c06dbaf29803a53831937d1fc57e24dcc6aa021727",
      "blockNumber": "0xcd4193",
      "gasUsed": "0x94e1",
      "effectiveGasPrice": "0x24e",
      "from": "0x6fa2149e69dbcbdcf6f16f755e08c10e53c40605",
      "to": "0x49298f4314eb127041b814a2616c25687db6b650",
      "contractAddress": null
    },
    {
      "status": "0x1",
      "cumulativeGasUsed": "0x8729ea",
      "logs": [
        {
          "address": "0x3a0a97dca5e6cacc258490d5ece453412f8e1883",
          "topics": [
            "0xbc7cd75a20ee27fd9adebab32041f755214dbc6bffa90cc0225b39da2e5c2d3b",
            "0x000000000000000000000000dfcdd986f2a5e412671afc81537ba43d1f6a328b"
          ],
          "data": "0x",
          "blockHash": "0x6a9a26063066229670f5a9c06dbaf29803a53831937d1fc57e24dcc6aa021727",
          "blockNumber": "0xcd4193",
          "blockTimestamp": "0x692340e3",
          "transactionHash": "0x9c632ef6965865d1e51126826bac5e465282984c04d00d44e743ea1ec53764d3",
          "transactionIndex": "0x7",
          "logIndex": "0x47",
          "removed": false
        }
      ],
      "logsBloom": "0x00000000000000000000000000000000400000000000000000000000000000000000000000000000000000000000000000000000000000000000000000000000000000000000000000000000000012000000000000000000000000000000000000000000000000000000000100000000000000000000000000008000000000000000000000000000000000000000000000000000000000000000000000000000000000000000020000000000000000000000000000000000000000000000000000000020000000000000000000000000000000000000000000020000000000000000000000000000000000000000000000000000000000000000000000008000",
      "type": "0x2",
      "transactionHash": "0x9c632ef6965865d1e51126826bac5e465282984c04d00d44e743ea1ec53764d3",
      "transactionIndex": "0x7",
      "blockHash": "0x6a9a26063066229670f5a9c06dbaf29803a53831937d1fc57e24dcc6aa021727",
      "blockNumber": "0xcd4193",
      "gasUsed": "0x80b1",
      "effectiveGasPrice": "0x24e",
      "from": "0x6fa2149e69dbcbdcf6f16f755e08c10e53c40605",
      "to": "0x3a0a97dca5e6cacc258490d5ece453412f8e1883",
      "contractAddress": null
    },
    {
      "status": "0x1",
      "cumulativeGasUsed": "0x87aa9b",
      "logs": [
        {
          "address": "0x7754272c866892cad4a414c76f060645bdc27203",
          "topics": [
            "0xbc7cd75a20ee27fd9adebab32041f755214dbc6bffa90cc0225b39da2e5c2d3b",
            "0x000000000000000000000000657613e8265e07e542d42802515677a1199989b2"
          ],
          "data": "0x",
          "blockHash": "0x6a9a26063066229670f5a9c06dbaf29803a53831937d1fc57e24dcc6aa021727",
          "blockNumber": "0xcd4193",
          "blockTimestamp": "0x692340e3",
          "transactionHash": "0xa5354a1f554793e8a5af79d0bf53ff32d85cba4b39eca7be9d178f7137cd282c",
          "transactionIndex": "0x8",
          "logIndex": "0x48",
          "removed": false
        }
      ],
      "logsBloom": "0x00000000000000000000000000000000400000000000000000000000000000000000000000000000000000000000000000000000000000000000000000000000000000000000000100000000000002000000000000000000000000000000000000000000000000020000000000000000100000000000000000000000000000000000000000000000000000000004000000000000000000000000000000000000000000000000000000000000000000000080000000000000000000000000000000000020000000000000000000000000000000000000000000000000000000000000000000000000000000000000000000000000000000000000000000000001",
      "type": "0x2",
      "transactionHash": "0xa5354a1f554793e8a5af79d0bf53ff32d85cba4b39eca7be9d178f7137cd282c",
      "transactionIndex": "0x8",
      "blockHash": "0x6a9a26063066229670f5a9c06dbaf29803a53831937d1fc57e24dcc6aa021727",
      "blockNumber": "0xcd4193",
      "gasUsed": "0x80b1",
      "effectiveGasPrice": "0x24e",
      "from": "0x6fa2149e69dbcbdcf6f16f755e08c10e53c40605",
      "to": "0x7754272c866892cad4a414c76f060645bdc27203",
      "contractAddress": null
    }
  ],
  "libraries": [],
  "pending": [],
  "returns": {},
  "timestamp": 1763918053,
  "chain": 80094,
  "commit": "822b5d6"
}