{
  "transactions": [
    {
      "hash": "0x78ce06808daa77789a3e98b9259ada12832c9f5c82839d4dacd81c08065fff28",
      "transactionType": "CREATE",
      "contractName": "MockERC20",
      "contractAddress": "0xa384a42baf163014df91a6ab92efc2bb8369cfad",
      "function": null,
      "arguments": [
        "SAIL Token",
        "SAIL",
        "18"
      ],
      "transaction": {
        "from": "0xe09883cb3fe2d973cefe4bb28e3a3849e7e5f0a7",
        "gas": "0xabbad",
        "value": "0x0",
        "input": "0x60806040523461033057610af98038038061001981610334565b9283398101906060818303126103305780516001600160401b0381116103305782610045918301610359565b60208201519092906001600160401b03811161033057604091610069918401610359565b91015160ff81168091036103305782516001600160401b03811161024157600354600181811c91168015610326575b602082101461022357601f81116102c3575b506020601f821160011461026057819293945f92610255575b50508160011b915f199060031b1c1916176003555b81516001600160401b03811161024157600454600181811c91168015610237575b602082101461022357601f81116101c0575b50602092601f821160011461015f57928192935f92610154575b50508160011b915f199060031b1c1916176004555b60ff19600554161760055560405161074e90816103ab8239f35b015190505f80610125565b601f1982169360045f52805f20915f5b8681106101a85750836001959610610190575b505050811b0160045561013a565b01515f1960f88460031b161c191690555f8080610182565b9192602060018192868501518155019401920161016f565b60045f527f8a35acfbc15ff81a39ae7d344fd709f28e8600b4aa8c65c6b64bfe7fe36bd19b601f830160051c81019160208410610219575b601f0160051c01905b81811061020e575061010b565b5f8155600101610201565b90915081906101f8565b634e487b7160e01b5f52602260045260245ffd5b90607f16906100f9565b634e487b7160e01b5f52604160045260245ffd5b015190505f806100c3565b601f1982169060035f52805f20915f5b8181106102ab57509583600195969710610293575b505050811b016003556100d8565b01515f1960f88460031b161c191690555f8080610285565b9192602060018192868b015181550194019201610270565b60035f527fc2575a0e9e593c00f959f8c92f12db2869c3395a3b0502d05e2516446f71f85b601f830160051c8101916020841061031c575b601f0160051c01905b81811061031157506100aa565b5f8155600101610304565b90915081906102fb565b90607f1690610098565b5f80fd5b6040519190601f01601f191682016001600160401b0381118382101761024157604052565b81601f82011215610330578051906001600160401b03821161024157610388601f8301601f1916602001610334565b928284526020838301011161033057815f9260208093018386015e830101529056fe6080806040526004361015610012575f80fd5b5f3560e01c90816306fdde031461055c57508063095ea7b3146104da57806318160ddd146104bd57806323b872dd146103dd578063313ce567146103bd57806340c10f191461031b57806370a08231146102e457806395d89b41146101c95780639dc29fac1461011a578063a9059cbb146100e95763dd62ed3e14610095575f80fd5b346100e55760403660031901126100e5576100ae610655565b6100b661066b565b6001600160a01b039182165f908152600160209081526040808320949093168252928352819020549051908152f35b5f80fd5b346100e55760403660031901126100e55761010f610105610655565b6024359033610681565b602060405160018152f35b346100e55760403660031901126100e557610133610655565b602435906001600160a01b031680156101b657805f525f60205260405f205482811061019d576020835f947fddf252ad1be2c89b69c2b068fc378daa952ba7f163c4a11628f55a4df523b3ef938587528684520360408620558060025403600255604051908152a3005b9063391434e360e21b5f5260045260245260445260645ffd5b634b637e8f60e11b5f525f60045260245ffd5b346100e5575f3660031901126100e5576040515f6004548060011c906001811680156102da575b6020831081146102c6578285529081156102aa5750600114610255575b50819003601f01601f191681019067ffffffffffffffff8211818310176102415761023d8291826040528261062b565b0390f35b634e487b7160e01b5f52604160045260245ffd5b905060045f527f8a35acfbc15ff81a39ae7d344fd709f28e8600b4aa8c65c6b64bfe7fe36bd19b5f905b8282106102945750602091508201018261020d565b600181602092548385880101520191019061027f565b90506020925060ff191682840152151560051b8201018261020d565b634e487b7160e01b5f52602260045260245ffd5b91607f16916101f0565b346100e55760203660031901126100e5576001600160a01b03610305610655565b165f525f602052602060405f2054604051908152f35b346100e55760403660031901126100e557610334610655565b6001600160a01b031660243581156103aa57600254908082018092116103965760207fddf252ad1be2c89b69c2b068fc378daa952ba7f163c4a11628f55a4df523b3ef915f9360025584845283825260408420818154019055604051908152a3005b634e487b7160e01b5f52601160045260245ffd5b63ec442f0560e01b5f525f60045260245ffd5b346100e5575f3660031901126100e557602060ff60055416604051908152f35b346100e55760603660031901126100e5576103f6610655565b6103fe61066b565b6001600160a01b0382165f81815260016020818152604080842033855290915290912054919360443593929091810161043d575b5061010f9350610681565b8381106104a257841561048f57331561047c5761010f945f52600160205260405f2060018060a01b0333165f526020528360405f209103905584610432565b634a1406b160e11b5f525f60045260245ffd5b63e602df0560e01b5f525f60045260245ffd5b8390637dc7a0d960e11b5f523360045260245260445260645ffd5b346100e5575f3660031901126100e5576020600254604051908152f35b346100e55760403660031901126100e5576104f3610655565b60243590331561048f576001600160a01b031690811561047c57335f52600160205260405f20825f526020528060405f20556040519081527f8c5be1e5ebec7d5bd14f71427d1e84f3dd0314c0f7b2291e5b200ac8c7c3b92560203392a3602060405160018152f35b346100e5575f3660031901126100e5575f6003548060011c90600181168015610621575b6020831081146102c6578285529081156102aa57506001146105cc5750819003601f01601f191681019067ffffffffffffffff8211818310176102415761023d8291826040528261062b565b905060035f527fc2575a0e9e593c00f959f8c92f12db2869c3395a3b0502d05e2516446f71f85b5f905b82821061060b5750602091508201018261020d565b60018160209254838588010152019101906105f6565b91607f1691610580565b602060409281835280519182918282860152018484015e5f828201840152601f01601f1916010190565b600435906001600160a01b03821682036100e557565b602435906001600160a01b03821682036100e557565b6001600160a01b03169081156101b6576001600160a01b03169182156103aa57815f525f60205260405f20548181106106ff57817fddf252ad1be2c89b69c2b068fc378daa952ba7f163c4a11628f55a4df523b3ef92602092855f525f84520360405f2055845f525f825260405f20818154019055604051908152a3565b8263391434e360e21b5f5260045260245260445260645ffdfea2646970667358221220389138af085ac2b6943a994e962f46409fe8f717445492b8382255c1657bf18164736f6c634300081e0033000000000000000000000000000000000000000000000000000000000000006000000000000000000000000000000000000000000000000000000000000000a00000000000000000000000000000000000000000000000000000000000000012000000000000000000000000000000000000000000000000000000000000000a5341494c20546f6b656e0000000000000000000000000000000000000000000000000000000000000000000000000000000000000000000000000000000000045341494c00000000000000000000000000000000000000000000000000000000",
        "nonce": "0x3ba",
        "chainId": "0x89"
      },
      "additionalContracts": [],
      "isFixedGasLimit": false
    },
    {
      "hash": "0xcd75b4cf68d80e172fc4b63e83b4d58312a301f00da7c6c6a1c164aaac6feea8",
      "transactionType": "CALL",
      "contractName": "MockERC20",
      "contractAddress": "0xa384a42baf163014df91a6ab92efc2bb8369cfad",
      "function": "mint(address,uint256)",
      "arguments": [
        "0xE09883Cb3Fe2d973cEfE4BB28E3A3849E7e5f0A7",
        "1000000000000000000000000000"
      ],
      "transaction": {
        "from": "0xe09883cb3fe2d973cefe4bb28e3a3849e7e5f0a7",
        "to": "0xa384a42baf163014df91a6ab92efc2bb8369cfad",
        "gas": "0x16f9c",
        "value": "0x0",
        "input": "0x40c10f19000000000000000000000000e09883cb3fe2d973cefe4bb28e3a3849e7e5f0a70000000000000000000000000000000000000000033b2e3c9fd0803ce8000000",
        "nonce": "0x3bb",
        "chainId": "0x89"
      },
      "additionalContracts": [],
      "isFixedGasLimit": false
    },
    {
      "hash": "0xac080fb9c00c918dde4e7b473517e136f8bbc26d01b777f4a9871da2e9453687",
      "transactionType": "CREATE",
      "contractName": "MockERC20",
      "contractAddress": "0xa61617fa0ad692ba4a5784c34156e530107b3252",
      "function": null,
      "arguments": [
        "USD Ethena",
        "USDe",
        "18"
      ],
      "transaction": {
        "from": "0xe09883cb3fe2d973cefe4bb28e3a3849e7e5f0a7",
        "gas": "0xabbad",
        "value": "0x0",
        "input": "0x60806040523461033057610af98038038061001981610334565b9283398101906060818303126103305780516001600160401b0381116103305782610045918301610359565b60208201519092906001600160401b03811161033057604091610069918401610359565b91015160ff81168091036103305782516001600160401b03811161024157600354600181811c91168015610326575b602082101461022357601f81116102c3575b506020601f821160011461026057819293945f92610255575b50508160011b915f199060031b1c1916176003555b81516001600160401b03811161024157600454600181811c91168015610237575b602082101461022357601f81116101c0575b50602092601f821160011461015f57928192935f92610154575b50508160011b915f199060031b1c1916176004555b60ff19600554161760055560405161074e90816103ab8239f35b015190505f80610125565b601f1982169360045f52805f20915f5b8681106101a85750836001959610610190575b505050811b0160045561013a565b01515f1960f88460031b161c191690555f8080610182565b9192602060018192868501518155019401920161016f565b60045f527f8a35acfbc15ff81a39ae7d344fd709f28e8600b4aa8c65c6b64bfe7fe36bd19b601f830160051c81019160208410610219575b601f0160051c01905b81811061020e575061010b565b5f8155600101610201565b90915081906101f8565b634e487b7160e01b5f52602260045260245ffd5b90607f16906100f9565b634e487b7160e01b5f52604160045260245ffd5b015190505f806100c3565b601f1982169060035f52805f20915f5b8181106102ab57509583600195969710610293575b505050811b016003556100d8565b01515f1960f88460031b161c191690555f8080610285565b9192602060018192868b015181550194019201610270565b60035f527fc2575a0e9e593c00f959f8c92f12db2869c3395a3b0502d05e2516446f71f85b601f830160051c8101916020841061031c575b601f0160051c01905b81811061031157506100aa565b5f8155600101610304565b90915081906102fb565b90607f1690610098565b5f80fd5b6040519190601f01601f191682016001600160401b0381118382101761024157604052565b81601f82011215610330578051906001600160401b03821161024157610388601f8301601f1916602001610334565b928284526020838301011161033057815f9260208093018386015e830101529056fe6080806040526004361015610012575f80fd5b5f3560e01c90816306fdde031461055c57508063095ea7b3146104da57806318160ddd146104bd57806323b872dd146103dd578063313ce567146103bd57806340c10f191461031b57806370a08231146102e457806395d89b41146101c95780639dc29fac1461011a578063a9059cbb146100e95763dd62ed3e14610095575f80fd5b346100e55760403660031901126100e5576100ae610655565b6100b661066b565b6001600160a01b039182165f908152600160209081526040808320949093168252928352819020549051908152f35b5f80fd5b346100e55760403660031901126100e55761010f610105610655565b6024359033610681565b602060405160018152f35b346100e55760403660031901126100e557610133610655565b602435906001600160a01b031680156101b657805f525f60205260405f205482811061019d576020835f947fddf252ad1be2c89b69c2b068fc378daa952ba7f163c4a11628f55a4df523b3ef938587528684520360408620558060025403600255604051908152a3005b9063391434e360e21b5f5260045260245260445260645ffd5b634b637e8f60e11b5f525f60045260245ffd5b346100e5575f3660031901126100e5576040515f6004548060011c906001811680156102da575b6020831081146102c6578285529081156102aa5750600114610255575b50819003601f01601f191681019067ffffffffffffffff8211818310176102415761023d8291826040528261062b565b0390f35b634e487b7160e01b5f52604160045260245ffd5b905060045f527f8a35acfbc15ff81a39ae7d344fd709f28e8600b4aa8c65c6b64bfe7fe36bd19b5f905b8282106102945750602091508201018261020d565b600181602092548385880101520191019061027f565b90506020925060ff191682840152151560051b8201018261020d565b634e487b7160e01b5f52602260045260245ffd5b91607f16916101f0565b346100e55760203660031901126100e5576001600160a01b03610305610655565b165f525f602052602060405f2054604051908152f35b346100e55760403660031901126100e557610334610655565b6001600160a01b031660243581156103aa57600254908082018092116103965760207fddf252ad1be2c89b69c2b068fc378daa952ba7f163c4a11628f55a4df523b3ef915f9360025584845283825260408420818154019055604051908152a3005b634e487b7160e01b5f52601160045260245ffd5b63ec442f0560e01b5f525f60045260245ffd5b346100e5575f3660031901126100e557602060ff60055416604051908152f35b346100e55760603660031901126100e5576103f6610655565b6103fe61066b565b6001600160a01b0382165f81815260016020818152604080842033855290915290912054919360443593929091810161043d575b5061010f9350610681565b8381106104a257841561048f57331561047c5761010f945f52600160205260405f2060018060a01b0333165f526020528360405f209103905584610432565b634a1406b160e11b5f525f60045260245ffd5b63e602df0560e01b5f525f60045260245ffd5b8390637dc7a0d960e11b5f523360045260245260445260645ffd5b346100e5575f3660031901126100e5576020600254604051908152f35b346100e55760403660031901126100e5576104f3610655565b60243590331561048f576001600160a01b031690811561047c57335f52600160205260405f20825f526020528060405f20556040519081527f8c5be1e5ebec7d5bd14f71427d1e84f3dd0314c0f7b2291e5b200ac8c7c3b92560203392a3602060405160018152f35b346100e5575f3660031901126100e5575f6003548060011c90600181168015610621575b6020831081146102c6578285529081156102aa57506001146105cc5750819003601f01601f191681019067ffffffffffffffff8211818310176102415761023d8291826040528261062b565b905060035f527fc2575a0e9e593c00f959f8c92f12db2869c3395a3b0502d05e2516446f71f85b5f905b82821061060b5750602091508201018261020d565b60018160209254838588010152019101906105f6565b91607f1691610580565b602060409281835280519182918282860152018484015e5f828201840152601f01601f1916010190565b600435906001600160a01b03821682036100e557565b602435906001600160a01b03821682036100e557565b6001600160a01b03169081156101b6576001600160a01b03169182156103aa57815f525f60205260405f20548181106106ff57817fddf252ad1be2c89b69c2b068fc378daa952ba7f163c4a11628f55a4df523b3ef92602092855f525f84520360405f2055845f525f825260405f20818154019055604051908152a3565b8263391434e360e21b5f5260045260245260445260645ffdfea2646970667358221220389138af085ac2b6943a994e962f46409fe8f717445492b8382255c1657bf18164736f6c634300081e0033000000000000000000000000000000000000000000000000000000000000006000000000000000000000000000000000000000000000000000000000000000a00000000000000000000000000000000000000000000000000000000000000012000000000000000000000000000000000000000000000000000000000000000a55534420457468656e610000000000000000000000000000000000000000000000000000000000000000000000000000000000000000000000000000000000045553446500000000000000000000000000000000000000000000000000000000",
        "nonce": "0x3bc",
        "chainId": "0x89"
      },
      "additionalContracts": [],
      "isFixedGasLimit": false
    },
    {
      "hash": "0xe8612cbec3e5b81e001e2e58da5a8b098b827263b1ccc7178386e61ee8a69f76",
      "transactionType": "CALL",
      "contractName": "MockERC20",
      "contractAddress": "0xa61617fa0ad692ba4a5784c34156e530107b3252",
      "function": "mint(address,uint256)",
      "arguments": [
        "0xE09883Cb3Fe2d973cEfE4BB28E3A3849E7e5f0A7",
        "100000000000000000000000000"
      ],
      "transaction": {
        "from": "0xe09883cb3fe2d973cefe4bb28e3a3849e7e5f0a7",
        "to": "0xa61617fa0ad692ba4a5784c34156e530107b3252",
        "gas": "0x1852a",
        "value": "0x0",
        "input": "0x40c10f19000000000000000000000000e09883cb3fe2d973cefe4bb28e3a3849e7e5f0a700000000000000000000000000000000000000000052b7d2dcc80cd2e4000000",
        "nonce": "0x3bd",
        "chainId": "0x89"
      },
      "additionalContracts": [],
      "isFixedGasLimit": false
    }
  ],
  "receipts": [
    {
      "status": "0x1",
      "cumulativeGasUsed": "0x1067501",
      "logs": [
        {
          "address": "0x0000000000000000000000000000000000001010",
          "topics": [
            "0x4dfe1bbbcf077ddc3e01291eea2d5c70c2b422b415d95645b9adcfd678cb1d63",
            "0x0000000000000000000000000000000000000000000000000000000000001010",
            "0x000000000000000000000000e09883cb3fe2d973cefe4bb28e3a3849e7e5f0a7",
            "0x0000000000000000000000007ee41d8a25641000661b1ef5e6ae8a00400466b0"
          ],
          "data": "0x000000000000000000000000000000000000000000000000003a5a88161beb6d0000000000000000000000000000000000000000000000004f9081af48289f8800000000000000000000000000000000000000000001a95ecea27a61d02936340000000000000000000000000000000000000000000000004f562727320cb41b00000000000000000000000000000000000000000001a95ecedcd4e9e64521a1",
          "blockHash": "0x6ca80703b35e80bd18ce79201b1e9b5e1d3331115ebd1bd62eeb418e088ee2ae",
          "blockNumber": "0x4b06169",
          "blockTimestamp": "0x690cb7b1",
          "transactionHash": "0x78ce06808daa77789a3e98b9259ada12832c9f5c82839d4dacd81c08065fff28",
          "transactionIndex": "0x63",
          "logIndex": "0x2ce",
          "removed": false
        }
      ],
      "logsBloom": "0x00000000000000000000000000000000000000000000000000000000000000000000000000000000000000000000000000008000000000000000000000000000000000000000000000000000000000800000000000000000010100000000000000000000000000000000000000800000000000000000000080000000000000000000000000000000020000000400000000000000000000000000000000000000200000000000000000000000000000000000000000000000000000000000004000000000000000000001000000000000000000400000000000100000080000000000000000000000000000000000000000000000000000000000000000100000",
      "type": "0x0",
      "transactionHash": "0x78ce06808daa77789a3e98b9259ada12832c9f5c82839d4dacd81c08065fff28",
      "transactionIndex": "0x63",
      "blockHash": "0x6ca80703b35e80bd18ce79201b1e9b5e1d3331115ebd1bd62eeb418e088ee2ae",
      "blockNumber": "0x4b06169",
      "gasUsed": "0x84199",
      "effectiveGasPrice": "0x2bd58f7240",
      "from": "0xe09883cb3fe2d973cefe4bb28e3a3849e7e5f0a7",
      "to": null,
      "contractAddress": "0xa384a42baf163014df91a6ab92efc2bb8369cfad"
    },
    {
      "status": "0x1",
      "cumulativeGasUsed": "0x1077f26",
      "logs": [
        {
          "address": "0xa384a42baf163014df91a6ab92efc2bb8369cfad",
          "topics": [
            "0xddf252ad1be2c89b69c2b068fc378daa952ba7f163c4a11628f55a4df523b3ef",
            "0x0000000000000000000000000000000000000000000000000000000000000000",
            "0x000000000000000000000000e09883cb3fe2d973cefe4bb28e3a3849e7e5f0a7"
          ],
          "data": "0x0000000000000000000000000000000000000000033b2e3c9fd0803ce8000000",
          "blockHash": "0x6ca80703b35e80bd18ce79201b1e9b5e1d3331115ebd1bd62eeb418e088ee2ae",
          "blockNumber": "0x4b06169",
          "blockTimestamp": "0x690cb7b1",
          "transactionHash": "0xcd75b4cf68d80e172fc4b63e83b4d58312a301f00da7c6c6a1c164aaac6feea8",
          "transactionIndex": "0x64",
          "logIndex": "0x2cf",
          "removed": false
        },
        {
          "address": "0x0000000000000000000000000000000000001010",
          "topics": [
            "0x4dfe1bbbcf077ddc3e01291eea2d5c70c2b422b415d95645b9adcfd678cb1d63",
            "0x0000000000000000000000000000000000000000000000000000000000001010",
            "0x000000000000000000000000e09883cb3fe2d973cefe4bb28e3a3849e7e5f0a7",
            "0x0000000000000000000000007ee41d8a25641000661b1ef5e6ae8a00400466b0"
          ],
          "data": "0x0000000000000000000000000000000000000000000000000007590fe70f09690000000000000000000000000000000000000000000000004e2699c7a76b174800000000000000000000000000000000000000000001a95ecedcd4e9e64521a10000000000000000000000000000000000000000000000004e1f40b7c05c0ddf00000000000000000000000000000000000000000001a95ecee42df9cd542b0a",
          "blockHash": "0x6ca80703b35e80bd18ce79201b1e9b5e1d3331115ebd1bd62eeb418e088ee2ae",
          "blockNumber": "0x4b06169",
          "blockTimestamp": "0x690cb7b1",
          "transactionHash": "0xcd75b4cf68d80e172fc4b63e83b4d58312a301f00da7c6c6a1c164aaac6feea8",
          "transactionIndex": "0x64",
          "logIndex": "0x2d0",
          "removed": false
        }
      ],
      "logsBloom": "0x00000000000000000000000000000000000000000000000000000000000000000000000000000000000000000000000000008000000000000000000000000000000000000000000000000008000000800000000000000000010100000000000000000080020000000000000000800800000000000000000080000010000000000000800000000000020000000400000000000000000000000000000000000000200000000000000000000000000000000000000000000000000000000000004000000002000000000001000000000000000000400000000000100000080020000000000000000000000000000000000000000000000000008000000000100000",
      "type": "0x0",
      "transactionHash": "0xcd75b4cf68d80e172fc4b63e83b4d58312a301f00da7c6c6a1c164aaac6feea8",
      "transactionIndex": "0x64",
      "blockHash": "0x6ca80703b35e80bd18ce79201b1e9b5e1d3331115ebd1bd62eeb418e088ee2ae",
      "blockNumber": "0x4b06169",
      "gasUsed": "0x10a25",
      "effectiveGasPrice": "0x2bd58f7240",
      "from": "0xe09883cb3fe2d973cefe4bb28e3a3849e7e5f0a7",
      "to": "0xa384a42baf163014df91a6ab92efc2bb8369cfad",
      "contractAddress": null
    },
    {
      "status": "0x1",
      "cumulativeGasUsed": "0x10fc0bf",
      "logs": [
        {
          "address": "0x0000000000000000000000000000000000001010",
          "topics": [
            "0x4dfe1bbbcf077ddc3e01291eea2d5c70c2b422b415d95645b9adcfd678cb1d63",
            "0x0000000000000000000000000000000000000000000000000000000000001010",
            "0x000000000000000000000000e09883cb3fe2d973cefe4bb28e3a3849e7e5f0a7",
            "0x0000000000000000000000007ee41d8a25641000661b1ef5e6ae8a00400466b0"
          ],
          "data": "0x000000000000000000000000000000000000000000000000003a5a88161beb6d0000000000000000000000000000000000000000000000004df9078abcf9140800000000000000000000000000000000000000000001a95ecee42df9cd542b0a0000000000000000000000000000000000000000000000004dbead02a6dd289b00000000000000000000000000000000000000000001a95ecf1e8881e3701677",
          "blockHash": "0x6ca80703b35e80bd18ce79201b1e9b5e1d3331115ebd1bd62eeb418e088ee2ae",
          "blockNumber": "0x4b06169",
          "blockTimestamp": "0x690cb7b1",
          "transactionHash": "0xac080fb9c00c918dde4e7b473517e136f8bbc26d01b777f4a9871da2e9453687",
          "transactionIndex": "0x65",
          "logIndex": "0x2d1",
          "removed": false
        }
      ],
      "logsBloom": "0x00000000000000000000000000000000000000000000000000000000000000000000000000000000000000000000000000008000000000000000000000000000000000000000000000000000000000800000000000000000010100000000000000000000000000000000000000800000000000000000000080000000000000000000000000000000020000000400000000000000000000000000000000000000200000000000000000000000000000000000000000000000000000000000004000000000000000000001000000000000000000400000000000100000080000000000000000000000000000000000000000000000000000000000000000100000",
      "type": "0x0",
      "transactionHash": "0xac080fb9c00c918dde4e7b473517e136f8bbc26d01b777f4a9871da2e9453687",
      "transactionIndex": "0x65",
      "blockHash": "0x6ca80703b35e80bd18ce79201b1e9b5e1d3331115ebd1bd62eeb418e088ee2ae",
      "blockNumber": "0x4b06169",
      "gasUsed": "0x84199",
      "effectiveGasPrice": "0x2bd58f7240",
      "from": "0xe09883cb3fe2d973cefe4bb28e3a3849e7e5f0a7",
      "to": null,
      "contractAddress": "0xa61617fa0ad692ba4a5784c34156e530107b3252"
    },
    {
      "status": "0x1",
      "cumulativeGasUsed": "0x110cad8",
      "logs": [
        {
          "address": "0xa61617fa0ad692ba4a5784c34156e530107b3252",
          "topics": [
            "0xddf252ad1be2c89b69c2b068fc378daa952ba7f163c4a11628f55a4df523b3ef",
            "0x0000000000000000000000000000000000000000000000000000000000000000",
            "0x000000000000000000000000e09883cb3fe2d973cefe4bb28e3a3849e7e5f0a7"
          ],
          "data": "0x00000000000000000000000000000000000000000052b7d2dcc80cd2e4000000",
          "blockHash": "0x6ca80703b35e80bd18ce79201b1e9b5e1d3331115ebd1bd62eeb418e088ee2ae",
          "blockNumber": "0x4b06169",
          "blockTimestamp": "0x690cb7b1",
          "transactionHash": "0xe8612cbec3e5b81e001e2e58da5a8b098b827263b1ccc7178386e61ee8a69f76",
          "transactionIndex": "0x66",
          "logIndex": "0x2d2",
          "removed": false
        },
        {
          "address": "0x0000000000000000000000000000000000001010",
          "topics": [
            "0x4dfe1bbbcf077ddc3e01291eea2d5c70c2b422b415d95645b9adcfd678cb1d63",
            "0x0000000000000000000000000000000000000000000000000000000000001010",
            "0x000000000000000000000000e09883cb3fe2d973cefe4bb28e3a3849e7e5f0a7",
            "0x0000000000000000000000007ee41d8a25641000661b1ef5e6ae8a00400466b0"
          ],
          "data": "0x000000000000000000000000000000000000000000000000000758bb16b5cded0000000000000000000000000000000000000000000000004c8f1fa31c3b8bc800000000000000000000000000000000000000000001a95ecf1e8881e37016770000000000000000000000000000000000000000000000004c87c6e80585bddb00000000000000000000000000000000000000000001a95ecf25e13cfa25e464",
          "blockHash": "0x6ca80703b35e80bd18ce79201b1e9b5e1d3331115ebd1bd62eeb418e088ee2ae",
          "blockNumber": "0x4b06169",
          "blockTimestamp": "0x690cb7b1",
          "transactionHash": "0xe8612cbec3e5b81e001e2e58da5a8b098b827263b1ccc7178386e61ee8a69f76",
          "transactionIndex": "0x66",
          "logIndex": "0x2d3",
          "removed": false
        }
      ],
      "logsBloom": "0x00000000000000000000000000000000000000000000000000000000000000000000000000000000000000000000000000008000000000000000000000000000000000000000000000000008000000800000000000000000010100000000000000000000020000000000000000800800000000000000000080000010000000000000000000000000020000000400000000000000000000000000000000000000200000000000000000000000000000000000000000000000000000000000004000000002000000000001000000000000000000400000000000100000080020000000080004000000000000000000000000000000000000000000000000100000",
      "type": "0x0",
      "transactionHash": "0xe8612cbec3e5b81e001e2e58da5a8b098b827263b1ccc7178386e61ee8a69f76",
      "transactionIndex": "0x66",
      "blockHash": "0x6ca80703b35e80bd18ce79201b1e9b5e1d3331115ebd1bd62eeb418e088ee2ae",
      "blockNumber": "0x4b06169",
      "gasUsed": "0x10a19",
      "effectiveGasPrice": "0x2bd58f7240",
      "from": "0xe09883cb3fe2d973cefe4bb28e3a3849e7e5f0a7",
      "to": "0xa61617fa0ad692ba4a5784c34156e530107b3252",
      "contractAddress": null
    }
  ],
  "libraries": [],
  "pending": [],
  "returns": {},
  "timestamp": 1762441138,
  "chain": 137,
  "commit": "42d19ad"
}